{
  "contractName": "CrowFunding",
  "abi": [
    {
      "inputs": [
        {
          "internalType": "uint256",
          "name": "_goal",
          "type": "uint256"
        },
        {
          "internalType": "uint256",
          "name": "_deadLine",
          "type": "uint256"
        }
      ],
      "stateMutability": "nonpayable",
      "type": "constructor"
    },
    {
      "anonymous": false,
      "inputs": [
        {
          "indexed": false,
          "internalType": "address",
          "name": "_sender",
          "type": "address"
        },
        {
          "indexed": false,
          "internalType": "uint256",
          "name": "_value",
          "type": "uint256"
        }
      ],
      "name": "ControbuteEvent",
      "type": "event"
    },
    {
      "anonymous": false,
      "inputs": [
        {
          "indexed": false,
          "internalType": "string",
          "name": "_description",
          "type": "string"
        },
        {
          "indexed": false,
          "internalType": "address",
          "name": "_recipient",
          "type": "address"
        },
        {
          "indexed": false,
          "internalType": "uint256",
          "name": "_value",
          "type": "uint256"
        }
      ],
      "name": "CreateRequestEvent",
      "type": "event"
    },
    {
      "anonymous": false,
      "inputs": [
        {
          "indexed": false,
          "internalType": "address",
          "name": "_recipient",
          "type": "address"
        },
        {
          "indexed": false,
          "internalType": "uint256",
          "name": "_value",
          "type": "uint256"
        }
      ],
      "name": "MakePaymentEvent",
      "type": "event"
    },
    {
      "inputs": [],
      "name": "admin",
      "outputs": [
        {
          "internalType": "address",
          "name": "",
          "type": "address"
        }
      ],
      "stateMutability": "view",
      "type": "function",
      "constant": true
    },
    {
      "inputs": [],
      "name": "deadLine",
      "outputs": [
        {
          "internalType": "uint256",
          "name": "",
          "type": "uint256"
        }
      ],
      "stateMutability": "view",
      "type": "function",
      "constant": true
    },
    {
      "inputs": [],
      "name": "goal",
      "outputs": [
        {
          "internalType": "uint256",
          "name": "",
          "type": "uint256"
        }
      ],
      "stateMutability": "view",
      "type": "function",
      "constant": true
    },
    {
      "inputs": [],
      "name": "minimumContribution",
      "outputs": [
        {
          "internalType": "uint256",
          "name": "",
          "type": "uint256"
        }
      ],
      "stateMutability": "view",
      "type": "function",
      "constant": true
    },
    {
      "inputs": [],
      "name": "numberOfContributors",
      "outputs": [
        {
          "internalType": "uint256",
          "name": "",
          "type": "uint256"
        }
      ],
      "stateMutability": "view",
      "type": "function",
      "constant": true
    },
    {
      "inputs": [],
      "name": "numberOfRequest",
      "outputs": [
        {
          "internalType": "uint256",
          "name": "",
          "type": "uint256"
        }
      ],
      "stateMutability": "view",
      "type": "function",
      "constant": true
    },
    {
      "inputs": [],
      "name": "raiseAmount",
      "outputs": [
        {
          "internalType": "uint256",
          "name": "",
          "type": "uint256"
        }
      ],
      "stateMutability": "view",
      "type": "function",
      "constant": true
    },
    {
      "inputs": [
        {
          "internalType": "uint256",
          "name": "",
          "type": "uint256"
        }
      ],
      "name": "requests",
      "outputs": [
        {
          "internalType": "string",
          "name": "description",
          "type": "string"
        },
        {
          "internalType": "uint256",
          "name": "value",
          "type": "uint256"
        },
        {
          "internalType": "address payable",
          "name": "recipient",
          "type": "address"
        },
        {
          "internalType": "uint256",
          "name": "numberOfVoters",
          "type": "uint256"
        },
        {
          "internalType": "bool",
          "name": "completed",
          "type": "bool"
        }
      ],
      "stateMutability": "view",
      "type": "function",
      "constant": true
    },
    {
      "stateMutability": "payable",
      "type": "receive",
      "payable": true
    },
    {
      "inputs": [],
      "name": "contribute",
      "outputs": [],
      "stateMutability": "payable",
      "type": "function",
      "payable": true
    },
    {
      "inputs": [],
      "name": "getBalance",
      "outputs": [
        {
          "internalType": "uint256",
          "name": "",
          "type": "uint256"
        }
      ],
      "stateMutability": "view",
      "type": "function",
      "constant": true
    },
    {
      "inputs": [],
      "name": "getRefund",
      "outputs": [],
      "stateMutability": "nonpayable",
      "type": "function"
    },
    {
      "inputs": [
        {
          "internalType": "string",
          "name": "_description",
          "type": "string"
        },
        {
          "internalType": "address payable",
          "name": "_recipient",
          "type": "address"
        },
        {
          "internalType": "uint256",
          "name": "_value",
          "type": "uint256"
        }
      ],
      "name": "createRequest",
      "outputs": [],
      "stateMutability": "nonpayable",
      "type": "function"
    },
    {
      "inputs": [
        {
          "internalType": "uint256",
          "name": "_requestNumber",
          "type": "uint256"
        }
      ],
      "name": "voteRequest",
      "outputs": [],
      "stateMutability": "nonpayable",
      "type": "function"
    },
    {
      "inputs": [
        {
          "internalType": "uint256",
          "name": "_requestNumber",
          "type": "uint256"
        }
      ],
      "name": "makePayment",
      "outputs": [],
      "stateMutability": "payable",
      "type": "function",
      "payable": true
    }
  ],
  "bytecode": "0x60806040523480156200001157600080fd5b50604051620019f5380380620019f58339818101604052810190620000379190620000ea565b8160058190555080426200004c919062000160565b60048190555033600160006101000a81548173ffffffffffffffffffffffffffffffffffffffff021916908373ffffffffffffffffffffffffffffffffffffffff16021790555067016345785d8a00006003819055505050620001bd565b600080fd5b6000819050919050565b620000c481620000af565b8114620000d057600080fd5b50565b600081519050620000e481620000b9565b92915050565b60008060408385031215620001045762000103620000aa565b5b60006200011485828601620000d3565b92505060206200012785828601620000d3565b9150509250929050565b7f4e487b7100000000000000000000000000000000000000000000000000000000600052601160045260246000fd5b60006200016d82620000af565b91506200017a83620000af565b9250827fffffffffffffffffffffffffffffffffffffffffffffffffffffffffffffffff03821115620001b257620001b162000131565b5b828201905092915050565b61182880620001cd6000396000f3fe6080604052600436106100e15760003560e01c806381d12c581161007f578063bef3a08311610059578063bef3a08314610292578063d7bb99ba146102bd578063db638f0b146102c7578063f851a440146102f2576100f0565b806381d12c581461020f578063937e09b114610250578063b2d5ae441461027b576100f0565b806340193883116100bb57806340193883146101745780634377cf651461019f5780634cb6f4a5146101ca5780635114cb52146101f3576100f0565b806312065fe0146100f557806312ed032b146101205780631b16bb5c1461014b576100f0565b366100f0576100ee61031d565b005b600080fd5b34801561010157600080fd5b5061010a6104af565b6040516101179190610c71565b60405180910390f35b34801561012c57600080fd5b506101356104b7565b6040516101429190610c71565b60405180910390f35b34801561015757600080fd5b50610172600480360381019061016d9190610e70565b6104bd565b005b34801561018057600080fd5b50610189610644565b6040516101969190610c71565b60405180910390f35b3480156101ab57600080fd5b506101b461064a565b6040516101c19190610c71565b60405180910390f35b3480156101d657600080fd5b506101f160048036038101906101ec9190610edf565b610650565b005b61020d60048036038101906102089190610edf565b6107ed565b005b34801561021b57600080fd5b5061023660048036038101906102319190610edf565b610a02565b604051610247959493929190610fbe565b60405180910390f35b34801561025c57600080fd5b50610265610aed565b6040516102729190610c71565b60405180910390f35b34801561028757600080fd5b50610290610af3565b005b34801561029e57600080fd5b506102a7610c26565b6040516102b49190610c71565b60405180910390f35b6102c561031d565b005b3480156102d357600080fd5b506102dc610c2c565b6040516102e99190610c71565b60405180910390f35b3480156102fe57600080fd5b50610307610c32565b6040516103149190611039565b60405180910390f35b600454421115610362576040517f08c379a0000000000000000000000000000000000000000000000000000000008152600401610359906110a0565b60405180910390fd5b6003543410156103a7576040517f08c379a000000000000000000000000000000000000000000000000000000000815260040161039e9061110c565b60405180910390fd5b60008060003373ffffffffffffffffffffffffffffffffffffffff1673ffffffffffffffffffffffffffffffffffffffff168152602001908152602001600020540361040657600260008154809291906104009061115b565b91905055505b346000803373ffffffffffffffffffffffffffffffffffffffff1673ffffffffffffffffffffffffffffffffffffffff168152602001908152602001600020600082825461045491906111a3565b92505081905550346006600082825461046d91906111a3565b925050819055507fe0297a332e50e0b36cdeb4c9ce7f765ada8d5e5c85f94d1eaed53553a9ba5f9a33346040516104a59291906111f9565b60405180910390a1565b600047905090565b60085481565b600160009054906101000a900473ffffffffffffffffffffffffffffffffffffffff1673ffffffffffffffffffffffffffffffffffffffff163373ffffffffffffffffffffffffffffffffffffffff161461054d576040517f08c379a00000000000000000000000000000000000000000000000000000000081526004016105449061126e565b60405180910390fd5b60006007600060085481526020019081526020016000209050600860008154809291906105799061115b565b919050555060008160050160006101000a81548160ff021916908315150217905550838160000190816105ac919061149a565b5060008160030181905550828160020160006101000a81548173ffffffffffffffffffffffffffffffffffffffff021916908373ffffffffffffffffffffffffffffffffffffffff1602179055508181600101819055507f5392bd80651676ccaaedec1afbe841d47e369223df0ba1586110b6426ee87a3a848484604051610636939291906115c1565b60405180910390a150505050565b60055481565b60025481565b60008060003373ffffffffffffffffffffffffffffffffffffffff1673ffffffffffffffffffffffffffffffffffffffff16815260200190815260200160002054116106d1576040517f08c379a00000000000000000000000000000000000000000000000000000000081526004016106c890611671565b60405180910390fd5b6000600760008381526020019081526020016000209050600015158160040160003373ffffffffffffffffffffffffffffffffffffffff1673ffffffffffffffffffffffffffffffffffffffff16815260200190815260200160002060009054906101000a900460ff1615151461077d576040517f08c379a0000000000000000000000000000000000000000000000000000000008152600401610774906116dd565b60405180910390fd5b600115158160040160003373ffffffffffffffffffffffffffffffffffffffff1673ffffffffffffffffffffffffffffffffffffffff16815260200190815260200160002060009054906101000a905050508060030160008154809291906107e49061115b565b91905055505050565b600160009054906101000a900473ffffffffffffffffffffffffffffffffffffffff1673ffffffffffffffffffffffffffffffffffffffff163373ffffffffffffffffffffffffffffffffffffffff161461087d576040517f08c379a00000000000000000000000000000000000000000000000000000000081526004016108749061126e565b60405180910390fd5b6005546006541161088d57600080fd5b6000600760008381526020019081526020016000209050600015158160050160009054906101000a900460ff161515146108fc576040517f08c379a00000000000000000000000000000000000000000000000000000000081526004016108f390611749565b60405180910390fd5b6002805461090a9190611798565b81600301541161091957600080fd5b8060020160009054906101000a900473ffffffffffffffffffffffffffffffffffffffff1673ffffffffffffffffffffffffffffffffffffffff166108fc82600101549081150290604051600060405180830381858888f19350505050158015610987573d6000803e3d6000fd5b50600115158160050160009054906101000a905050507f516e1673e5e85c44620165259173329adda2ad25e7bb15020c732be060b5b7908160020160009054906101000a900473ffffffffffffffffffffffffffffffffffffffff1682600101546040516109f69291906117c9565b60405180910390a15050565b6007602052806000526040600020600091509050806000018054610a25906112bd565b80601f0160208091040260200160405190810160405280929190818152602001828054610a51906112bd565b8015610a9e5780601f10610a7357610100808354040283529160200191610a9e565b820191906000526020600020905b815481529060010190602001808311610a8157829003601f168201915b5050505050908060010154908060020160009054906101000a900473ffffffffffffffffffffffffffffffffffffffff16908060030154908060050160009054906101000a900460ff16905085565b60035481565b600554600654118015610b07575060045442115b610b1057600080fd5b60008060003373ffffffffffffffffffffffffffffffffffffffff1673ffffffffffffffffffffffffffffffffffffffff1681526020019081526020016000205411610b5b57600080fd5b3373ffffffffffffffffffffffffffffffffffffffff166108fc6000803373ffffffffffffffffffffffffffffffffffffffff1673ffffffffffffffffffffffffffffffffffffffff168152602001908152602001600020549081150290604051600060405180830381858888f19350505050158015610bdf573d6000803e3d6000fd5b5060008060003373ffffffffffffffffffffffffffffffffffffffff1673ffffffffffffffffffffffffffffffffffffffff16815260200190815260200160002081905550565b60045481565b60065481565b600160009054906101000a900473ffffffffffffffffffffffffffffffffffffffff1681565b6000819050919050565b610c6b81610c58565b82525050565b6000602082019050610c866000830184610c62565b92915050565b6000604051905090565b600080fd5b600080fd5b600080fd5b600080fd5b6000601f19601f8301169050919050565b7f4e487b7100000000000000000000000000000000000000000000000000000000600052604160045260246000fd5b610cf382610caa565b810181811067ffffffffffffffff82111715610d1257610d11610cbb565b5b80604052505050565b6000610d25610c8c565b9050610d318282610cea565b919050565b600067ffffffffffffffff821115610d5157610d50610cbb565b5b610d5a82610caa565b9050602081019050919050565b82818337600083830152505050565b6000610d89610d8484610d36565b610d1b565b905082815260208101848484011115610da557610da4610ca5565b5b610db0848285610d67565b509392505050565b600082601f830112610dcd57610dcc610ca0565b5b8135610ddd848260208601610d76565b91505092915050565b600073ffffffffffffffffffffffffffffffffffffffff82169050919050565b6000610e1182610de6565b9050919050565b610e2181610e06565b8114610e2c57600080fd5b50565b600081359050610e3e81610e18565b92915050565b610e4d81610c58565b8114610e5857600080fd5b50565b600081359050610e6a81610e44565b92915050565b600080600060608486031215610e8957610e88610c96565b5b600084013567ffffffffffffffff811115610ea757610ea6610c9b565b5b610eb386828701610db8565b9350506020610ec486828701610e2f565b9250506040610ed586828701610e5b565b9150509250925092565b600060208284031215610ef557610ef4610c96565b5b6000610f0384828501610e5b565b91505092915050565b600081519050919050565b600082825260208201905092915050565b60005b83811015610f46578082015181840152602081019050610f2b565b83811115610f55576000848401525b50505050565b6000610f6682610f0c565b610f708185610f17565b9350610f80818560208601610f28565b610f8981610caa565b840191505092915050565b610f9d81610e06565b82525050565b60008115159050919050565b610fb881610fa3565b82525050565b600060a0820190508181036000830152610fd88188610f5b565b9050610fe76020830187610c62565b610ff46040830186610f94565b6110016060830185610c62565b61100e6080830184610faf565b9695505050505050565b600061102382610de6565b9050919050565b61103381611018565b82525050565b600060208201905061104e600083018461102a565b92915050565b7f446561644c696e65206861732070617373656400000000000000000000000000600082015250565b600061108a601383610f17565b915061109582611054565b602082019050919050565b600060208201905081810360008301526110b98161107d565b9050919050565b7f4d696e696d756d20436f6e747269627574696f6e206e6f74206d657400000000600082015250565b60006110f6601c83610f17565b9150611101826110c0565b602082019050919050565b60006020820190508181036000830152611125816110e9565b9050919050565b7f4e487b7100000000000000000000000000000000000000000000000000000000600052601160045260246000fd5b600061116682610c58565b91507fffffffffffffffffffffffffffffffffffffffffffffffffffffffffffffffff82036111985761119761112c565b5b600182019050919050565b60006111ae82610c58565b91506111b983610c58565b9250827fffffffffffffffffffffffffffffffffffffffffffffffffffffffffffffffff038211156111ee576111ed61112c565b5b828201905092915050565b600060408201905061120e600083018561102a565b61121b6020830184610c62565b9392505050565b7f4f6e6c792061646d696e2063616e2063616c6c00000000000000000000000000600082015250565b6000611258601383610f17565b915061126382611222565b602082019050919050565b600060208201905081810360008301526112878161124b565b9050919050565b7f4e487b7100000000000000000000000000000000000000000000000000000000600052602260045260246000fd5b600060028204905060018216806112d557607f821691505b6020821081036112e8576112e761128e565b5b50919050565b60008190508160005260206000209050919050565b60006020601f8301049050919050565b600082821b905092915050565b6000600883026113507fffffffffffffffffffffffffffffffffffffffffffffffffffffffffffffffff82611313565b61135a8683611313565b95508019841693508086168417925050509392505050565b6000819050919050565b600061139761139261138d84610c58565b611372565b610c58565b9050919050565b6000819050919050565b6113b18361137c565b6113c56113bd8261139e565b848454611320565b825550505050565b600090565b6113da6113cd565b6113e58184846113a8565b505050565b5b81811015611409576113fe6000826113d2565b6001810190506113eb565b5050565b601f82111561144e5761141f816112ee565b61142884611303565b81016020851015611437578190505b61144b61144385611303565b8301826113ea565b50505b505050565b600082821c905092915050565b600061147160001984600802611453565b1980831691505092915050565b600061148a8383611460565b9150826002028217905092915050565b6114a382610f0c565b67ffffffffffffffff8111156114bc576114bb610cbb565b5b6114c682546112bd565b6114d182828561140d565b600060209050601f83116001811461150457600084156114f2578287015190505b6114fc858261147e565b865550611564565b601f198416611512866112ee565b60005b8281101561153a57848901518255600182019150602085019450602081019050611515565b868310156115575784890151611553601f891682611460565b8355505b6001600288020188555050505b505050505050565b600061158761158261157d84610de6565b611372565b610de6565b9050919050565b60006115998261156c565b9050919050565b60006115ab8261158e565b9050919050565b6115bb816115a0565b82525050565b600060608201905081810360008301526115db8186610f5b565b90506115ea60208301856115b2565b6115f76040830184610c62565b949350505050565b7f596f75206d757374206265206120636f6e7472696275746f7220746f20766f7460008201527f6500000000000000000000000000000000000000000000000000000000000000602082015250565b600061165b602183610f17565b9150611666826115ff565b604082019050919050565b6000602082019050818103600083015261168a8161164e565b9050919050565b7f596f75206861766520616c726561647920766f74656400000000000000000000600082015250565b60006116c7601683610f17565b91506116d282611691565b602082019050919050565b600060208201905081810360008301526116f6816116ba565b9050919050565b7f5265717565737420686173206265656e20636f6d706c65746564000000000000600082015250565b6000611733601a83610f17565b915061173e826116fd565b602082019050919050565b6000602082019050818103600083015261176281611726565b9050919050565b7f4e487b7100000000000000000000000000000000000000000000000000000000600052601260045260246000fd5b60006117a382610c58565b91506117ae83610c58565b9250826117be576117bd611769565b5b828204905092915050565b60006040820190506117de60008301856115b2565b6117eb6020830184610c62565b939250505056fea264697066735822122059298cc508ed73664c4a4f3c5163614e591019297a6505a5faefc5e90b1afeb364736f6c634300080f0033",
  "immutableReferences": {},
  "source": "// SPDX-License-Identifier: GPL-3.0\r\n\r\npragma solidity >=0.8.0 <0.9.0;\r\n\r\ncontract CrowFunding {\r\n    mapping(address => uint) contributors;\r\n    address public admin;\r\n    uint public numberOfContributors;\r\n    uint public minimumContribution;\r\n    uint public deadLine;\r\n    uint public goal;\r\n    uint public raiseAmount;\r\n\r\n    struct Request {\r\n        string description;\r\n        uint value;\r\n        address payable recipient;\r\n        uint numberOfVoters;\r\n        mapping(address => bool) voters;\r\n        bool completed;\r\n    }\r\n\r\n    mapping(uint => Request) public requests;\r\n    uint public numberOfRequest;\r\n\r\n    constructor(uint _goal, uint _deadLine) {\r\n        goal = _goal;\r\n        deadLine = block.timestamp + _deadLine;\r\n        admin = msg.sender;\r\n        minimumContribution = 0.1 ether;\r\n    }\r\n\r\n    event ControbuteEvent(address _sender, uint _value);\r\n    event CreateRequestEvent(string _description, address _recipient, uint _value);\r\n    event MakePaymentEvent(address _recipient, uint _value);\r\n\r\n    function contribute() public payable {\r\n        require(block.timestamp <= deadLine, \"DeadLine has passed\");\r\n        require(msg.value >= minimumContribution, \"Minimum Contribution not met\");\r\n        if(contributors[msg.sender] == 0) {\r\n            numberOfContributors++;\r\n        }\r\n        contributors[msg.sender] += msg.value;\r\n        raiseAmount += msg.value;\r\n\r\n        emit ControbuteEvent(msg.sender, msg.value);\r\n    }\r\n\r\n    receive() payable external {\r\n        contribute();\r\n    }\r\n\r\n    function getBalance() public view returns(uint) {\r\n        return address(this).balance;\r\n    }\r\n\r\n    function getRefund() public {\r\n        require(raiseAmount > goal && block.timestamp > deadLine);\r\n        require(contributors[msg.sender] > 0);\r\n        payable(msg.sender).transfer(contributors[msg.sender]);\r\n        contributors[msg.sender] = 0;\r\n    }\r\n\r\n    modifier onlyAdmin() {\r\n        require(msg.sender == admin, \"Only admin can call\");\r\n        _;\r\n    }\r\n\r\n    function createRequest(string memory _description, address payable _recipient, uint _value) public onlyAdmin {\r\n        Request storage newRequest = requests[numberOfRequest];\r\n        numberOfRequest++;\r\n        newRequest.completed = false;\r\n        newRequest.description = _description;\r\n        newRequest.numberOfVoters = 0;\r\n        newRequest.recipient = _recipient;\r\n        newRequest.value = _value; \r\n\r\n        emit CreateRequestEvent(_description, _recipient, _value);\r\n    }\r\n\r\n    function voteRequest(uint _requestNumber) public {\r\n        require(contributors[msg.sender] > 0, \"You must be a contributor to vote\");\r\n        Request storage thisRequest = requests[_requestNumber];\r\n\r\n        require(thisRequest.voters[msg.sender] == false, \"You have already voted\");\r\n        thisRequest.voters[msg.sender] == true;\r\n        thisRequest.numberOfVoters++;\r\n    }\r\n\r\n    function makePayment(uint _requestNumber) public payable onlyAdmin {\r\n        require(raiseAmount > goal);\r\n        Request storage thisRequest = requests[_requestNumber];\r\n        require(thisRequest.completed == false, \"Request has been completed\");\r\n        require(thisRequest.numberOfVoters > numberOfContributors / 2);\r\n\r\n        thisRequest.recipient.transfer(thisRequest.value);\r\n        thisRequest.completed == true;\r\n\r\n        emit MakePaymentEvent(thisRequest.recipient, thisRequest.value);\r\n    }\r\n}",
  "sourcePath": "d:\\TruffleProject\\CrowFunding\\contracts\\CrowFunding.sol",
  "compiler": {
    "name": "solc",
    "version": "0.8.15+commit.e14f2714.Emscripten.clang"
  },
  "schemaVersion": "3.4.8",
  "updatedAt": "2022-07-20T13:12:23.808Z",
  "networkType": "ethereum",
  "devdoc": {
    "kind": "dev",
    "methods": {},
    "version": 1
  },
  "userdoc": {
    "kind": "user",
    "methods": {},
    "version": 1
  }
}